:1000000063EF1FF00000000000EF00F000000000B0
:0A0010000000000000000000F3D71C
:10001C00ACC1C9FFC7B002D00000FCD7C9CF00F0FB
:02002C001200C0
:10002E00F250026EF29E0500FF6A0150FE6E005005
:08003E00FD6E02BEF28E1200FD
:100046008292400E0101A911006E63C0E1FF64C0F7
:10005600E2FF00C0E6FF61C000F062C001F0E4DF2D
:1000660063C0E1FF64C0E2FFAAC1E6FF61C000F021
:1000760062C001F0D9DF63C0E1FF64C0E2FFABC13B
:10008600E6FF61C000F062C001F0CEDF828212009E
:100096008292A00E0101A611006E63C0E1FF64C04A
:1000A600E2FF00C0E6FF61C000F062C001F0BCDF05
:1000B60063C0E1FF64C0E2FFA7C1E6FF61C000F0D4
:0A00C60062C001F0B1DF8282120077
:1000D0000101A96BA6C1AAF1A7C1ABF1B4DF82925D
:1000E00063C0E1FF64C0E2FF3A0EE66E61C000F05B
:1000F00062C001F09CDF63C0E1FF64C0E2FFE66A1A
:0E01000061C000F062C001F092DF8282120046
:08010E000AAE029E000E120071
:100116000B840BAE96EF00F0010E036E026A016AC5
:0A012600006A0A360232FF0E1200D2
:10013000829263C0E1FF64C0E2FFA6C1E6FF61C036
:1001400000F062C001F073DF63C0E1FF64C0E2FF52
:10015000E66A61C000F062C001F069DF82821200CD
:10016000020E0101A96FA6C1AAF1A7C1ABF16BDF15
:10017000829263C0E1FF64C0E2FF7A0EE66E61C066
:1001800000F062C001F053DF63C0E1FF64C0E2FF32
:10019000A8C1E6FF61C000F062C001F048DF8282C2
:0201A00012004B
:1001A200829263C0E1FF64C0E2FF7A0EE66E61C034
:1001B20000F062C001F03ADF63C0E1FF64C0E2FF19
:1001C200A6C1E6FF61C000F062C001F02FDF8282AB
:0201D200120019
:1001D4008292800E0101A611006E63C0E1FF64C02B
:1001E400E2FF00C0E6FF61C000F062C001F01DDF65
:1001F40063C0E1FF64C0E2FFA7C1E6FF61C000F095
:0A02040062C001F012DF82821200D6
:10020E000B820BAE11EF01F0036802680168006803
:08021E000A360232FF0E120045
:0E022600026A016A006A086A036A000E12008A
:1002340098C1A6F199C1A7F19AC1A8F18FDF9BC11A
:06024400A6F1ADDF12007F
:10024A00086A096A100E0C6E013408360936045021
:10025A00085E0550D8A0053C095ED8B007D0045006
:10026A0008260550D8B0053C0926D8900036013634
:06027A000C2EEAD7120071
:1002800001019A5198259C6F9B5199219D6F010EF8
:100290009C5F000E9D5B100EA96F98C1AAF199C1D9
:1002A000ABF1D1DE120E0101A96F9CC1AAF19DC173
:1002B000ABF1C9DE1F0E0101A66F300EA76F8ADFFA
:1002C0001F0E0101A66F34DF00AA01D0F9D712007A
:1002D0000101A56B010E9A5F000E9B5B9E530DE022
:1002E0009B51190802E19A51AD0807E2A52BAD0E0A
:1002F0009A5DA36F190E9B59A46FA55305E0AD0E2F
:100300009F6F190EA06F04D09AC19FF19BC1A0F1FD
:100310009951A01902E19F5198190DE198C1A6F1D8
:1003200099C1A7F1D5DE00C0A8F19CC1A6F19DC17D
:10033000A7F116DF36D0100E0101A96F98C1AAF1FE
:1003400099C1ABF180DE120E0101A96FA55305E042
:10035000AD0EA16F190EA26F04D09AC1A1F19BC17D
:10036000A2F1A1C1AAF1A2C1ABF16DDE140E01018F
:10037000A96F9CC1AAF19DC1ABF165DE1F0E010101
:10038000A66F100EA76F87DE1F0E0101A66F200E4D
:10039000A76F20DF1F0E0101A66FCADE00AA01D0E1
:1003A000F9D70101A5531AE098519A5D006E995151
:1003B0009B59016EA351005EA451015A004A012AC3
:1003C00000509C2701509D23010EA35D9A6F000EE3
:0E03D000A4599B6F986B996BA56B8FD7120089
:1003DE009AC104F09BC105F098C102F099C103F0D7
:1003EE009CC100F09DC101F0010E01019C5F000E49
:1003FE009D5B005001100FE004C0E9FF05C0EAFF4D
:10040E0002C0E1FF03C0E2FFEECFE6FF024A032A7D
:10041E00044A052AE5D798C100F099C101F01200EF
:10042E00AE0E0101A66F190EA76FA86B92DEAE0E6F
:10043E0001019825006E190E9921016E00C098F1E8
:10044E0001C099F1060EA96F00C0AAF101C0ABF16F
:10045E00F3DD1F0E0101A66F800EA76FB4DE1F0E17
:10046E000101A66F800EA76F0FDE00016551050A10
:10047E0004E06551070A01E006D01C0E0101A66FCB
:10048E000A0EA76F01DE1F0E0101A66F080EA76FE1
:10049E009ADE00016551050A04E06551070A01E084
:1004AE0080D001019D6B9E6B1C0EA66F3ADE0A0E6C
:1004BE00001600520AE101019D4B9E2B030E9E5D1C
:1004CE0002E1E80E9D5D01E2EFD701011C0EA66F61
:1004DE0028DE00B208D0030E01019E5D02E1E80E97
:1004EE009D5D01E25DD001011F0EA66F080EA76F84
:1004FE00CBDD040E01019825A66F000E9921A76F82
:10050E00E0DD00C09CF101019A6B100E9A5D48E28D
:10051E001C0EA66F06DE00A23FD001019CAB3CD0A4
:10052E001F0EA66F800EA76F4EDE1F0E0101A66F67
:10053E00800EA76FA9DD1C0E0101A66F0A0EA76F14
:10054E00A3DD1F0E0101A66F080EA76F3CDE010191
:10055E009D6B9E6B1C0EA66FE4DD0A0E00160052FC
:10056E000AE101019D4B9E2B030E9E5D02E1E80EFA
:10057E009D5D01E2EFD701011F0EA66F080EA76F5A
:10058E0083DD040E01019825A66F000E9921A76F39
:10059E0098DD00C09CF101D003D001019A2BB5D794
:1005AE0007D001011F0EA66FBCDD00A601D0F9D742
:1005BE001D0E0101A66FB5DD060E0016005203E0FA
:1005CE0001019B6B03D00101010E9B6F9BC100F0DB
:0205DE00120009
:1005E000020E0101A96F98C1AAF199C1ABF12BDDEF
:1005F000829263C0E1FF64C0E2FF7A0EE66E61C0E2
:1006000000F062C001F013DD01019C519D1117E063
:1006100063C0E1FF64C0E2FF9AC1E9FF9BC1EAFF4A
:10062000EECFE6FF61C000F062C001F000DD010125
:100630009A4B9B2B010E9C5F000E9D5BE5D782823F
:020640001200A6
:100642000CB063EF03F00CA209EF04F00E6A000E87
:1006520002647AEF03F0F00E0214D8A445EF03F01F
:10066200023A01380F0B02260138F00B016E0038F6
:100672000F0B01260038F00B006E08380F0B002616
:100682000838F00B086E0E84D89002BE5EEF03F0BD
:1006920008360036013602360E2A02BE5EEF03F03D
:1006A20008360036013602360E2A02BE5EEF03F02D
:1006B20008360036013602360E2A0E500364FFEF6A
:1006C20003F0035E0BBC08AE04EF04F0D880800E8A
:1006D20008640030000E002201220222D8A004EF9A
:1006E20004F0023201320032034A09EF04F004EF4F
:1006F20004F001C002F000C001F008C000F0086A76
:10070200000E0E860264B1EF03F0F00E0214D8A4BC
:1007120099EF03F0023A01380F0B02260138F00B71
:10072200016E00380F0B01260038F00B006E0E84AC
:10073200D89002BE5EEF03F00036013602360E2A72
:1007420002BE5EEF03F00036013602360E2A02BE0A
:100752005EEF03F00036013602360E2A5EEF03F03A
:1007620001C002F000C001F0006A000E0E960E8871
:100772000264DEEF03F0F00E0214D8A4C9EF03F016
:10078200023A01380F0B02260138F00B016E0E847B
:10079200D89002BE5EEF03F0013602360E2A02BE88
:1007A2005EEF03F0013602360E2A02BE5EEF03F060
:1007B200013602360E2A5EEF03F001C002F0016A32
:1007C200000E0E8602640EEF04F0F00E0214D8A49E
:1007D200EDEF03F0023A0E84D89002BE5EEF03F012
:1007E20002360E2A02BE5EEF03F002360E2A02BE67
:1007F2005EEF03F002360E2A5EEF03F0010E0C6E7E
:1008020089DC11EF04F0020E0C6E80DC11EF04F0B3
:10081200040E0C6EFBDC11EF04F0080E0C6E02DD10
:020822001200C2
:10082400829263C0E1FF64C0E2FF7A0EE66E61C0AB
:1008340000F062C001F017EC00F063C0E1FF64C097
:10084400E2FF99C1E6FF61C000F062C001F017EC5D
:1008540000F063C0E1FF64C0E2FF98C1E6FF61C03D
:0E08640000F062C001F017EC00F0828212007A
:10087200829263C0E1FF64C0E2FF7A0EE66E61C05D
:1008820000F062C001F017EC00F09AC100F09BC1C9
:1008920001F0010E01019A5F000E9B5B00500110F6
:1008A20014E063C0E1FF64C0E2FF98C1E9FF99C1AF
:1008B200EAFFEECFE6FF61C000F062C001F017EC84
:0E08C20000F00101984B992BE0D782821200C2
:1008D0008AC104F08BC105F004C002F005C003F02A
:1008E000044A052A8CC100F08DC101F001018C4B36
:1008F0008D2B00C0E9FF01C0EAFF02C0E1FF03C089
:10090000E2FFEECFE6FF02C0E9FF03C0EAFFEE52CE
:0E09100001E0E2D78AC100F08BC101F01200B5
:10091E00829263C0E1FF64C0E2FF3A0EE66E61C0F0
:10092E0000F062C001F017EC00F063C0E1FF64C09C
:10093E00E2FFE66A61C000F062C001F017EC00F061
:04094E00828212008F
:10095200086A096A000E076203642EEF05F002506E
:1009620006180A6E075003267E0ED8A0BFEF04F0C9
:10097200035ED8B033EF05F0C3EF04F0035ED8A0F6
:1009820038EF05F0028E068E02C00EF001C00BF0A9
:1009920000C00DF000500402F4CF0CF0015005022B
:1009A200F4CF00F0F3CF08F00402F3500C26F45019
:1009B2000822000E00220D500502F3500C26F450BE
:1009C2000822000E002202500402F3500826F450BE
:1009D200002202500502016A000E0122F350002695
:1009E200F45001220D500602F3500826F450002262
:1009F200026A000E012202220B500602F350002668
:100A0200F4500122000E02220E500602F35001267B
:100A1200F450022202BE16EF05F008360036013607
:100A220002360306D8B438EF05F029EF05F0D88076
:100A3200800E08640030000E002201220222D8A09B
:100A420029EF05F0023201320032034A33EF05F09A
:100A52000AAE029E000E3BEF05F0010E13EC01F010
:100A62003BEF05F0020E07EC01F03BEF05F0040E40
:060A72008BEC00F0120005
:100A780001018D51FF0A02E1FF0E8C1907E0A96BF5
:100A88008CC1AAF18DC1ABF123EC00F0829263C056
:100A9800E1FF64C0E2FF3A0EE66E61C000F062C09A
:100AA80001F017EC00F08EC100F08FC101F0010ECB
:100AB80001018E5F000E8F5B0050011015E063C0CE
:100AC800E1FF64C0E2FFE66A61C000F062C001F0C5
:100AD80017EC00F08AC1E1FF8BC1E2FF00C0E6FF1E
:0C0AE80001018A4B8B2BDFD782821200A9
:100AF400829263C0E1FF64C0E2FF7A0EE66E61C0D9
:100B040000F062C001F017EC00F08DC100F08EC15E
:100B140001F0010E01018D5F000E8E5B005001108B
:100B24001CE063C0E1FF64C0E2FF8AC1F6FF8BC131
:100B3400F7FF8CC1F8FF0900F5CF00F000C0E6FF15
:100B440061C000F062C001F017EC00F0010E010179
:0E0B54008A27000E8B238C23D8D782821200B2
:100B620001018E6B050E8E5D0AE28E518C25E16EBF
:100B7200000E8D21E26E200EE66E8E2BF3D78E5183
:100B82008C25E16E000E8D21E26EE66A8E078E5193
:100B92008C258F6F000E8D21906F0A0E046E000E51
:100BA200056E8AC100F08BC101F025EC01F008C08E
:100BB20000F009C001F0300E00268FC1E1FF90C1A4
:100BC200E2FF00C0E6FF0A0E046E000E056E8AC147
:100BD20000F08BC101F025EC01F000C08AF101C0E8
:100BE2008BF1000E011802E1000E001801E102D0A3
:060BF2008E07CDD71200B2
:100BF8000A6A0350D8A40A800750D8A40A820A5067
:100C0800D8B45FEF06F0030AD8B418EF06F00AB0BC
:100C180013EF06F006AE5DEF06F05BEF06F002AEEE
:100C28005BEF06F05DEF06F00250800B0A6E029E45
:100C38000650800B069E0A18D8B429EF06F00A5011
:100C4800D8B45BEF06F05DEF06F00750035CD8B44C
:100C580033EF06F0D8A04FEF06F055EF06F0065038
:100C6800025CD8B43DEF06F0D8A04FEF06F055EF80
:100C780006F00550015CD8B447EF06F0D8A04FEF56
:100C880006F055EF06F00450005CD8B45FEF06F0AC
:100C9800D8B055EF06F00A52D8B45DEF06F05BEF16
:100CA80006F00A52D8B45BEF06F05DEF06F0D88084
:0E0CB8001200D8901200D880D88412001200CA
:100CC600086A080E0C6E003408360450085ED8B068
:0E0CD60002D00826D89000360C2EF5D712005A
:080CE4000B6A0B86FF0E1200E3
:100CEC00025006180E6E086A096A0B6A03500764F4
:100CFC0069EF07F006500A6E068E028E03500B6EDB
:100D0C000750036E000E0B64B9EF06F00B50075E34
:100D1C00D8B45AEF07F0070E076428EF07F0075E08
:100D2C0000C008F001C000F002C001F0026A074EDA
:100D3C005AEF07F00764FDEF06F0075E00C008F0FD
:100D4C0001C000F0016A074E5AEF07F00764DBEFB1
:100D5C0006F0075E00C008F0006A074E5AEF07F075
:100D6C000764C2EF06F00AC002F005C001F004C02F
:100D7C0000F0086A86EF08F0030E0764CDEF06F06A
:100D8C00075E08380F0B086E074E5AEF07F0D89025
:100D9C000832074E5AEF07F0D8900832074E5AEF38
:100DAC0007F0D89008325AEF07F0030E0764ECEF07
:100DBC0006F0075E08380F0B086E0038F00B08269B
:100DCC0000380F0B006E074E5AEF07F0D890003228
:100DDC000832074E5AEF07F0D89000320832074E0F
:100DEC005AEF07F0D890003208325AEF07F0030E92
:100DFC00076414EF07F0075E08380F0B086E003815
:100E0C00F00B082600380F0B006E0138F00B002693
:100E1C0001380F0B016E074E5AEF07F0D8900132D4
:100E2C0000320832074E5AEF07F0D89001320032E8
:100E3C000832074E5AEF07F0D890013200320832D0
:100E4C005AEF07F0030E076445EF07F0075E08380A
:100E5C000F0B086E0038F00B082600380F0B006ED5
:100E6C000138F00B002601380F0B016E0238F00B25
:100E7C00012602380F0B026E074E5AEF07F0D8907E
:100E8C000232013200320832074E5AEF07F0D89086
:100E9C000232013200320832074E5AEF07F0D89076
:100EAC000232013200320832096A000E0EAE4EEFE9
:100EBC0008F0081E001E011E021E082A0022012234
:100ECC0002224EEF08F00750D8A46FEF07F086EF20
:100EDC0008F0096A02C00AF0028E068E0750035C05
:100EEC00076ED8B441EF08F0070E07640FEF08F057
:100EFC00075E0450096E0550046E0650056E066AB6
:100F0C00074E41EF08F0070E0764E4EF07F0075EA9
:100F1C000450096E0550046E056A074E41EF08F047
:100F2C00070E0764C2EF07F0075E0450096E046AEF
:100F3C00074E41EF08F0070E0764A9EF07F00AC04F
:100F4C0002F086EF08F0030E0764B4EF07F0075EBB
:100F5C0009380F0B096E074E41EF08F0D890093293
:100F6C00074E41EF08F0D8900932074E41EF08F0D8
:100F7C00D890093241EF08F0030E0764D3EF07F065
:100F8C00075E09380F0B096E0438F00B092604387C
:100F9C000F0B046E074E41EF08F0D8900432093263
:100FAC00074E41EF08F0D89004320932074E41EF5A
:100FBC0008F0D8900432093241EF08F0030E0764B0
:100FCC00FBEF07F0075E09380F0B096E0438F00BC6
:100FDC00092604380F0B046E0538F00B042605386F
:100FEC000F0B056E074E41EF08F0D8900532043216
:100FFC000932074E41EF08F0D8900532043209321D
:10100C00074E41EF08F0D89005320432093241EF17
:10101C0008F0030E07642CEF08F0075E09380F0B7D
:10102C00096E0438F00B092604380F0B046E0538D2
:10103C00F00B042605380F0B056E0638F00B052651
:10104C0006380F0B066E074E41EF08F0D8900632AB
:10105C00053204320932074E41EF08F0D8900632BF
:10106C00053204320932074E41EF08F0D8900632AF
:10107C00053204320932086A000E0EAE4EEF08F04B
:10108C00091E041E051E061E092A0422052206221C
:10109C000950082604500022055001220650022255
:1010AC000EBE65EF08F0D8A074EF08F002320132E2
:1010BC0000320832033E74EF08F080EF08F0D8B02D
:1010CC007AEF08F0000E081E001E011E021E082AF0
:1010DC000022012202220A7E7AEF08F0010E0C6E29
:1010EC0021EC03F088EF08F0020E0C6E21EC03F0FB
:1010FC0088EF08F0040E0C6E07EC01F088EF08F096
:06110C00000E0C6E120043
:0C1112000E0E0D6E0D2EFED70000120018
:10111E000C6A0E6A0250D8A4A8EF08F001C002F0C3
:10112E0000C001F0006A0E860250D8A4A8EF08F0A5
:10113E0001C002F0016A0E960E880250D8B4BAEFC2
:10114E0008F00E50035ED8A4D8A0C0EF08F0D890D7
:10115E0002BEC6EF08F0003601360236032EAFEFA0
:10116E0008F0C0EF08F0010E0C6E13EC01F0CAEFA0
:10117E0008F0020E0C6E8BEC00F0CAEF08F0040EB5
:08118E000C6E87EC00F012006A
:101196008AC198F18BC199F1980E01019A6F000EE0
:1011A6009B6F040E9C6F000E9D6FEFEC01F08C6B35
:1011B6008C51030821E38C518A25026E000E8B2187
:1011C600036E02C0E9FF03C0EAFFEECF01F09C0EFA
:1011D600E96E000EEA6E8C51E926D8B0EA2AFF0EB7
:1011E600EE18006E0150001202C0E1FF03C0E2FFDC
:0A11F60000C0E6FF8C2BDCD71200CE
:101200008EC101F08FC102F0010E01018E5F000E50
:101210008F5B000E021802E1000E01181FE08AC168
:10122000E9FF8BC1EAFF8CC1D9FF8DC1DAFFEE5017
:10123000DE180FE08AC1E9FF8BC1EAFF8CC1D9FF3C
:101240008DC1DAFFDE50EE5C006E016A000E015ABD
:1012500007D08A4B8B2B8C4B8D2BD2D7006A016A1F
:0212600012007A
:10126200AF0E0101986F190E996F8AC19AF18BC165
:101272009BF1060E9C6F000E9D6FF0EC02F0720E59
:10128200986F000E996F060E9A6F000E9B6F39ECE5
:1012920004F0000E986F080E996F12EC04F01C0E09
:1012A20001019225956F000E9321966F000E986FA3
:1012B200450E996F12EC04F095C198F196C199F11F
:1012C20012EC04F08EC098F18FC099F112EC04F088
:1012D20000018E4B8F2B0101986B996B12EC04F07D
:1012E200110E0101986F800E996F12EC04F001014A
:1012F200986B996B12EC04F0980E0101986F000E36
:10130200996F040E9A6F000E9B6F39EC04F08CC13A
:1013120098F18DC199F1040E9A6F000E9B6F39EC12
:1013220004F0080E9225956F000E9321966F8EC1E0
:1013320098F18FC199F112EC04F090C198F191C12A
:1013420099F112EC04F095C198F196C199F112EC61
:1013520004F00101986B996B12EC04F0BD0E0101CF
:10136200986F190E996F140E9A6F000E9B6F40ECD6
:1013720001F0160E0101A66F98EC00F000C097F183
:10138200170E0101A66F98EC00F000C09AF1C70E8B
:101392000101986F190E996F97C19BF11AEC01F038
:1013A200010E01019515946FD90E9225A66F190EA3
:1013B2009321A76FA86BB0EC00F0C90E0101986FE2
:1013C200190E996FD10E9A6F190E9B6FD90E922535
:1013D2009C6F190E93219D6F94519C27000E9D23A3
:1013E2009E6B68EC01F0D90E9225986F190E93212D
:1013F200996F94519827000E9923080E9827000E92
:1014020099239A6B110E9B6F1AEC01F096C1A6F10B
:10141200D1EC00F095C1A6F1D1EC00F0D10E0101A2
:10142200986F190E996F0C0E95259A6F000E9621E2
:101432009B6F94519A27000E9B2340EC01F0160EED
:101442000101A66F98EC00F000C097F1170E0101A0
:10145200A66F98EC00F000C09AF1D70E0101986FC8
:10146200190E996F97C19BF11AEC01F02A0E010136
:101472009225986F000E9321996F17EC02F01200DB
:101482000450000A12E10550000A0FE10650000A5A
:101492000CE10750000A09E1FF0E006EFF0E016E1B
:1014A2007F0E026EFF0E036EA8D0086A096A07500B
:1014B200D8B4ECEF0AF00350D8B4F1EF0AF00250BE
:1014C20006180A6E028E068E0E6A02C008F001C06D
:1014D2000CF000C00DF004500D5E0550D8A0053C84
:1014E2000C5E0650D8A0063C085E086A0C6A0D6ABB
:1014F200D8A083EF0AF0D8900232013200320832CB
:10150200010E0E6E0750035ED8A090EF0AF07E0E19
:101512000E240326D8B0F6EF0AF096EF0AF07E0EFC
:101522000E240326D8A0FBEF0AF0180E0B6E0D3620
:101532000C3608360036013602360E360450005E8E
:101542000550D8A0053C015E0650D8A0063C025EBC
:1015520006340E120EA0B1EF0AF00D80BCEF0AF0B5
:10156200045000260550D8B0053C01260650D8B0DC
:10157200062802260D900B2E98EF0AF0E2EF0AF0F1
:10158200D8900036013602360E360450005E055001
:10159200D8A0053C015E0650D8A0063C025E063487
:1015A2000E10010B0D26D8B00C2AD8B4082AD8A4E4
:1015B200E2EF0AF008320C320D32032AD8B4F6EF09
:1015C2000AF00AAE089E0850026E0C50016E0D50D1
:1015D200006EFEEF0AF0010E72EC06F0FEEF0AF06A
:1015E200020E13EC01F0FEEF0AF0040E07EC01F01C
:0C15F200FEEF0AF0080E8BEC00F0120077
:1015FE00020E0C6E490E0D6E0D2EFED70C2EFCD764
:06160E00000000001200C4
:101614000050086E0150006E016A026A036A0B6A88
:101624000C6A960E036E0A6A00C001F008C000F04E
:08163400086A026A72DD12006F
:10163C000101886B896B7CC184F17DC185F17EC110
:10164C0086F17FC187F18751FF0A08E18651FF0AB5
:10165C0005E18551FF0A02E18451FF0A0DE180C1C9
:10166C008AF181C18BF12E0E8C6F000E8D6F68ECA0
:10167C0004F0030E006EEDD1010E826F86AF0ED01A
:10168C00800E8619006E00C086F1822B80C1E1FFAE
:10169C0081C1E2FF2D0EE66E804B812B000E006E99
:1016AC00871908E10050861905E10050851902E1FF
:1016BC008451000A0CE180C18AF181C18BF1190EB1
:1016CC008C6F000E8D6F68EC04F0006AC2D18751EC
:1016DC00FF0A08E18651000A05E18551000A02E182
:1016EC008451000A0DE180C18AF181C18BF1150E84
:1016FC008C6F000E8D6F68EC04F082C100F0A9D1E4
:10170C00000E046E000E056E000E066E7F0E076E48
:10171C0084C100F085C101F086C102F087C103F0DD
:10172C00FCEC05F0010ED8B0000E006E00521CE06F
:10173C0084C100F085C101F086C102F087C103F0BD
:10174C00000E046E000E056E200E066E820E076EE5
:10175C00A9EC04F000C084F101C085F102C086F14F
:10176C0003C087F18907CCD7000E046E000E056EFE
:10177C00200E066E820E076E84C100F085C101F04A
:10178C0086C102F087C103F0FCEC05F0000ED8B066
:10179C00010E006E00521CE084C100F085C101F006
:1017AC0086C102F087C103F0CD0E046ECC0E056E1F
:1017BC004C0E066E7B0E076EA9EC04F000C084F193
:1017CC0001C085F102C086F103C087F1892BCCD70B
:1017DC00FF0E8415086EFF0E8515096E7F0E86159B
:1017EC000A6E000E87150B6E08C004F009C005F0D8
:1017FC000AC006F00BC007F0043604900536063616
:10180C000736000E8415006E000E8515016E000E55
:10181C008615026EFF0E8715036E00C084F101C0A1
:10182C0085F102C086F103C087F104508411006E6B
:10183C0005508511016E06508611026E07508711F6
:10184C00036E00C084F101C085F102C086F103C0B3
:10185C0087F17F0E875D006E00C083F1010E876FEC
:10186C0000C004F084C100F085C101F086C102F013
:10187C0087C103F0045007E00036009001360236B1
:10188C000336FF0FF8D700C084F101C085F102C008
:10189C0086F103C087F180C1E1FF81C1E2FF87516E
:1018AC00300FE66E804B812B800E8919006E800EF6
:1018BC00010A005C08E3800E060A006E800E89198E
:1018CC00005C01E30AD080C1E1FF81C1E2FF2E0E72
:1018DC00E66E804B812B010E886F060E836F835151
:1018EC00000A54E0876B84C100F085C101F086C109
:1018FC0002F087C103F00036009001360236033641
:10190C00003600900136023603368451002685518C
:10191C000122865102228751032200C084F101C0AA
:10192C0085F102C086F103C087F184C100F085C146
:10193C0001F086C102F087C103F000360090013639
:10194C000236033600C084F101C085F102C086F175
:10195C0003C087F180C1E1FF81C1E2FF8751300FE5
:10196C00E66E804B812B8851000A0EE18907895164
:10197C00000A0AE180C1E1FF81C1E2FF2E0EE66E92
:10198C00804B812B010E886F8307A9D7FF0E802512
:10199C00E96EFF0E8121EA6EEE50300A05E1010E70
:1019AC00805F000E815BF2D7FF0E8025E96EFF0E83
:1019BC008121EA6EEE502E0A04E1010E805F000ECA
:1019CC00815B8951000A3FE080C1E1FF81C1E2FFE8
:1019DC00650EE66E804B812B800E8919006E800E91
:1019EC00000A005C0BE280C1E1FF81C1E2FF2D0E19
:1019FC00E66E804B812B89510008896F89C183F178
:101A0C00895109080FE20A0E046E83C100F063ECE1
:101A1C0006F080C1E1FF81C1E2FF0050300FE66E9D
:101A2C00804B812B0A0E046E83C100F063EC06F030
:101A3C0008C000F080C1E1FF81C1E2FF0050300F0F
:101A4C00E66E804B812B80C1E1FF81C1E2FFE66A2B
:041A5C00006A12000A
:101A6000F90E01017F6F000E806F020EA96FD90E73
:101A7000AA6F190EAB6F23EC00F0040E01018A6F00
:101A8000480E8B6F000E8C6F0C0E8D6F000E8E6FDC
:101A90007AEC05F07C51030A0DE17D530BE05D0EFD
:101AA000986F000E996F040E9A6F000E9B6F39ECC1
:101AB00004F00AD07E6B040E7E5D06E2A66BD1ECCC
:101AC00000F001017E2BF7D77E6B0C0E7E5D06E2E7
:101AD000A66BD1EC00F001017E2BF7D7720E986F48
:101AE000000E996F060E9A6F000E9B6F39EC04F092
:101AF0007E6BCA0E7E5D06E2A66BD1EC00F00101A2
:101B00007E2BF7D7330E8A6F480E8B6F000E8C6FCB
:101B1000060E8D6F000E8E6F7AEC05F07CC1A6F17B
:101B2000D1EC00F001017C51030A1AE17D5318E168
:101B3000360EA66FD1EC00F0040E0101A66FD1ECB9
:101B400000F06A0E0101986F000E996F040E9A6FF3
:101B5000000E9B6F39EC04F0060E7F27000E8023E9
:101B6000390E8A6F480E8B6F000E8C6F050E8D6FCD
:101B7000000E8E6F7AEC05F07C51030A23E17D5351
:101B800021E1320EA66FD1EC00F0040E0101A66F28
:101B9000D1EC00F001017E6B040E7E5D0FE25D0E64
:101BA000E96E000EEA6E7E51E926D8B0EA2AEECF41
:101BB000A6F1D1EC00F001017E2BEED7060E7F27B7
:101BC000000E8023FF0EA66FD1EC00F0370E01014E
:101BD0008A6F000E8B6F370E8C6F000E8D6F440E68
:101BE0008E6F000E8F6F430E906F000E916F7FC14E
:0C1BF00092F180C193F131EC09F0120079
:101BFC007CC102F07DC103F07FC100F080C101F017
:101C0C00010E01017F5F000E805B0050011009E0A6
:101C1C0002C0E1FF03C0E2FF7EC1E6FF024A032AD5
:0C1C2C00EBD77CC100F07DC101F012007C
:081C3800067E76EC06F01200B6
:101C40000101806B816B829263C0E1FF64C0E2FF9F
:101C50007A0EE66E61C000F062C001F017EC00F091
:101C60007CC100F07DC101F07EC102F0010E0101D6
:101C70007C27000E7D237E2300C0F6FF01C0F7FF06
:101C800002C0F8FF0900F5CF00F000C07FF100525C
:101C900010E063C0E1FF64C0E2FF7FC1E6FF61C006
:101CA00000F062C001F017EC00F00101804B812BC5
:0E1CB000D7D7828280C100F081C101F01200FE
:101CBE009C0E0101986F000E996F7CC19AF17DC147
:101CCE009BF1040E9C6F000E9D6FEFEC01F0D40E95
:101CDE00986F000E996F7EC19AF17FC19BF1040E31
:101CEE009C6F000E9D6FEFEC01F0D80E986F000EFA
:101CFE00996F80C19AF181C19BF1040E9C6F000E09
:101D0E009D6FEFEC01F0D00E8A6F000E8B6FCBEC57
:041D1E0008F01200B7
:101D220001017E6B3C0E596E000E5A6E5B6E5C6E4C
:101D32008FEC04F000C07CF10050020AD8A42ED12E
:101D420001017D6B0F0E7D5D05E28FEC04F0010158
:101D52007D2BF8D75D0E8A6F000E8B6FFF0E8C6F96
:101D6200FF0E8D6F040E8E6F000E8F6F3CEC05F030
:101D72007D6B080E7D5D05E28FEC04F001017D2B89
:101D8200F8D77D6B060E7D5D13E28FEC04F000C088
:101D92007CF1720ED96E000EDA6E01017D51D926E8
:101DA200D8B0DA2A0050DE1801E024D17D2BEAD720
:101DB2007D6BCE0E7D5D05E28FEC04F001017D2B83
:101DC200F8D77F6B8FEC04F000C07CF1C8D08FECA9
:101DD20004F000C07CF10050010A05E18FEC04F030
:101DE20000C07EF101D006D1D5D08FEC04F000C046
:101DF2007CF10050040A10E1780E01018A6F000E96
:101E02008B6FFF0E8C6FFF0E8D6F040E8E6F000EA8
:101E12008F6F3CEC05F001D0EDD0BCD08FEC04F01C
:101E220000C07CF1040E005C10E36E0E01018A6FAB
:101E3200000E8B6FFF0E8C6FFF0E8D6F040E8E6F78
:101E4200000E8F6F3CEC05F001D0D4D00101040EDE
:101E52007C5F01017CC100F07C07005203E08FEC43
:101E620004F0F7D797D08FEC04F000C07CF1040E99
:101E7200005C10E3660E01018A6F000E8B6FFF0E8D
:101E82008C6FFF0E8D6F040E8E6F000E8F6F3CEC09
:101E920005F001D0AFD00101040E7C5F01017CC1CD
:101EA20000F07C07005203E08FEC04F0F7D772D009
:101EB2008FEC04F000C07CF10050040A10E1800EA7
:101EC20001018A6F010E8B6FFF0E8C6FFF0E8D6FFB
:101ED200040E8E6F000E8F6F3CEC05F001D08AD09D
:101EE20059D00101010E7F6F55D08FEC04F000C074
:101EF2007CF10050040A23E1590E01018A6F000EA1
:101F02008B6FFF0E8C6FFF0E8D6F040E8E6F000EA7
:101F12008F6F3CEC05F05C50000808E15B50000854
:101F220005E15A50070802E15950080807E2080E75
:101F3200595E070E5A5A000E5B5A5C5A01D05AD0AB
:101F420029D08FEC04F000C07CF17CC100F00101CB
:101F52007C07005203E08FEC04F0F7D71BD001019D
:101F62007C51350AD8B433D77C51010AD8B43DD755
:101F72007C51030AD8B452D77C51060AD8B473D71D
:101F82007C51360A95E07C51FF0AABE07C51330A62
:101F9200ACE0D7D701017F53D8B414D701017E51E9
:101FA200020A0FE16A0E986F000E996F800E9A6F07
:101FB200010E9B6F040E9C6F000E9D6FEFEC01F003
:101FC20016D06A0E8A6F000E8B6F800E8C6F010E18
:101FD2008D6F040E8E6F000E8F6F00EC09F0000EF5
:101FE200011802E1000E001802E001017E6B7EC1C1
:081FF20000F001D0006A1200AA
:101FFA0001017F6B806B829263C0E1FF64C0E2FFE4
:10200A007A0EE66E61C000F062C001F017EC00F0D3
:10201A007CC100F07DC101F001017C4B7D2B00C029
:10202A00E9FF01C0EAFFEECF00F000C07EF10052E6
:10203A0010E063C0E1FF64C0E2FF7EC1E6FF61C059
:10204A0000F062C001F017EC00F001017F4B802B19
:0E205A00DFD782827FC100F080C101F012004A
:10206800C26A070EC012C08E7CC100F00036009014
:10207800003600900050C212C28089EC08F0C2827B
:10208800C2A201D0FDD7C4CF01F0006AC35000122C
:08209800000E0112C2901200BB
:1020A0000101826B836B7CC184F17DC185F1800E5F
:1020B0007D19006E800E005C02E1000E7C5D0BE27B
:1020C000010E826F000E836F7C510008846F7DC10A
:1020D00085F1000E855784C18AF185C18BF17EC1DF
:1020E0008CF17FC18DF1B1EC05F0060E806F000E12
:1020F000816F000E006E8151005C02E1805100088A
:1021000019E280517E25E16E81517F21E26E010E40
:10211000805D006E000E8159016E00507E25E96ED3
:1021200001507F21EA6EEECFE6FF010E805F000EC8
:10213000815BDFD77EC1E1FF7FC1E2FF200EE66E4B
:10214000825183111AE0806B816B80517E25E96E8C
:1021500081517F21EA6EEE50200A03E1804B812BF2
:10216000F4D7010E805F000E815B80517E25E16E09
:0C21700081517F21E26E2D0EE66E120000
:10217C000B6A0A6A096A00500402F4CF09F0F3CF23
:10218C0008F001500502F4CF0BF0F3CF0AF0005029
:10219C000502F3500926F4500A22E86A0B2201507A
:1021AC000402F3500926F4500A22E86A0B2208C0F4
:1021BC0000F009C001F00AC002F00BC003F01200DD
:1021CC0001016D51190802E16C51AD0804E2AE0E2B
:1021DC006C5F190E6D5BA96B6CC1AAF16DC1ABF193
:0621EC0023EC00F01200DC
:1021F200B50E0101986F190E996FBB0E9A6F190EE9
:102202009B6FAF0E9C6F190E9D6F9E6B68EC01F079
:10221200B50E986F190E996F720E9A6F000E9B6F22
:0E222200060E9C6F000E9D6FF0EC02F0120095
:1022300001016C6BC80E6C5D06E2FFEC0AF0FFEC6E
:082240000AF06C2BF7D7120025
:102248008292400E01016C11006E63C0E1FF64C010
:10225800E2FF00C0E6FF61C000F062C001F017ECC9
:1022680000F063C0E1FF64C0E2FF6DC1E6FF61C03A
:0E22780000F062C001F017EC00F0828212004C
:102286000101A66B98EC00F000C071F1010E01018E
:10229600A66F98EC00F000C072F10101A96B6CC149
:1022A600AAF16DC1ABF123EC00F0829263C0E1FFAD
:1022B60064C0E2FF3A0EE66E61C000F062C001F053
:1022C60017EC00F00101705318E063C0E1FF64C031
:1022D600E2FFE66A61C000F062C001F017EC00F0B0
:1022E6006EC1D9FF6FC1DAFF0050DE1801E005D0DC
:1022F60001016E4B6F2B7007E5D701018282A96B36
:1023060071C1AAF172C1ABF123EC00F070C100F00B
:022316001200B3
:06231800006A016A1200D8
:10231E00C90E0101986F190E996FCD0E9A6F190E95
:10232E009B6FCD0E9C6F190E9D6F9E6B68EC01F02E
:10233E00C90E986F190E996F980E9A6F000E9B6FBB
:0E234E00040E9C6F000E9D6FF0EC02F012006A
:10235C000101786B796B000E711902E1500E701946
:10236C0003E0006A016AFBD2766B776B000E775D37
:10237C0002E10A0E765D12E2DC0E76257A6F000E13
:10238C0077217B6F8FEC04F07AC1E1FF7BC1E2FF18
:10239C0000C0E6FF0101764B772BE8D7DC0E7625E3
:1023AC00E16E000E7721E26EE66ADC0E8A6F000E9B
:1023BC008B6F4F0E8C6F000E8D6F050E8E6F000E97
:1023CC008F6F00EC09F00050011003E0006A016A05
:1023DC00C6D2010E5526000E562257225822E1C0B5
:1023EC00F9F00001E151730AD8A472D2CC0E0101AC
:1023FC007C6F470E7D6F000E7E6F1CDC00C078F189
:10240C0001C079F1EB0E7C6F470E7D6F000E7E6F75
:10241C0011DC0050782701507923030E7C6F1EDEEF
:10242C0000C0FAF001C0FBF00AEC0BF0000E046ED9
:10243C00000E056E200E066E810E076EA9EC04F0E0
:10244C00000E046EC00E056E7F0E066E880E076EB3
:10245C0041EC0AF000C0F5F001C0F6F002C0F7F054
:10246C0003C0F8F0000E046E000E056E200E066E12
:10247C00800E076E1CEC0EF0020E046E2B0E056E19
:10248C00070E066E7B0E076E41EC0AF000C0F5F0ED
:10249C0001C0F6F002C0F7F003C0F8F0000E046EB5
:1024AC00000E056E5C0E066E860E076EA9EC04F02F
:1024BC0000C0F5F001C0F6F002C0F7F003C0F8F070
:1024CC00020E01017C6FCADD00C0F3F001C0F4F014
:1024DC000AEC0BF0000E046E000E056E200E066E5C
:1024EC00810E076EA9EC04F0000E046EC00E056E92
:1024FC007F0E066E880E076E41EC0AF000C0EFF0FE
:10250C0001C0F0F002C0F1F003C0F2F0000E046E56
:10251C00000E056E200E066E800E076E1CEC0EF083
:10252C00020E046E2B0E056E070E066E7B0E076EEA
:10253C0041EC0AF000C0EFF001C0F0F002C0F1F085
:10254C0003C0F2F0000E046E000E056E5C0E066EFB
:10255C00860E076EA9EC04F000C0EFF001C0F0F09D
:10256C0002C0F1F003C0F2F0F5C004F0F6C005F0C3
:10257C00F7C006F0F8C007F076EC06F000C0EBF000
:10258C0001C0ECF002C0EDF003C0EEF000C07CF135
:10259C0001C07DF102C07EF103C07FF1FC0E010190
:1025AC00806F000E816F1EEC0BF0100E7C6F480ECE
:1025BC007D6F000E7E6F20EC0EF0005078270150DE
:1025CC007923FC0E7C6F000E7D6F11DD0050782797
:1025DC0001507923400E7C6F480E7D6F000E7E6F8C
:1025EC0020EC0EF00050782701507923010E7C6FFF
:1025FC0035DD00C026F101C027F10AEC0BF0000E0E
:10260C00046E000E056E200E066E810E076EA9EC90
:10261C0004F0000E046EC00E056E7F0E066E880E62
:10262C00076E41EC0AF000C028F101C029F102C08C
:10263C002AF103C02BF1000E046E000E056E200E65
:10264C00066E800E076E1CEC0EF0020E046E2B0E46
:10265C00056E070E066E7B0E076E41EC0AF000C08D
:10266C0028F101C029F102C02AF103C02BF1000EA0
:10267C00046E000E056E400E066E820E076EA9ECFF
:10268C0004F000C028F101C029F102C02AF103C0F6
:10269C002BF101017C6BE2DC00C02CF101C02DF1AF
:1026AC000AEC0BF0000E046E000E056E200E066E8A
:1026BC00810E076EA9EC04F0000E046EC00E056EC0
:1026CC007F0E066E880E076E41EC0AF000C022F1F8
:1026DC0001C023F102C024F103C025F1000E046EE9
:1026EC00000E056E200E066E800E076E1CEC0EF0B2
:1026FC00020E046E2B0E056E070E066E7B0E076E19
:10270C0041EC0AF000C022F101C023F102C024F117
:10271C0003C025F1000E046E000E056E400E066E11
:10272C00820E076EA9EC04F000C022F101C023F167
:10273C0002C024F103C025F128C104F029C105F021
:10274C002AC106F02BC107F076EC06F000C01EF192
:10275C0001C01FF102C020F103C021F100C07CF1C7
:10276C0001C07DF102C07EF103C07FF1FC0E0101BE
:10277C00806F000E816F1EEC0BF0220E7C6F480EEA
:10278C007D6F000E7E6F20EC0EF00050782701500C
:10279C007923FC0E7C6F000E7D6F29DC00507827AE
:1027AC00015079233E0E7C6F480E7D6F000E7E6FBC
:1027BC0020EC0EF00050782701507923EFC000F088
:1027CC00F0C001F0F1C002F0F2C003F0F5C004F06B
:1027DC00F6C005F0F7C006F0F8C007F076EC06F08E
:1027EC0022C104F023C105F024C106F025C107F075
:1027FC0076EC06F028C104F029C105F02AC106F0D8
:10280C002BC107F076EC06F000C01AF101C01BF1E9
:10281C0002C01CF103C01DF100C07CF101C07DF1B0
:10282C0002C07EF103C07FF1FC0E806F000E816F41
:10283C001EEC0BF02B0E7C6F480E7D6F000E7E6F26
:10284C0020EC0EF00050782701507923FC0E7C6FA1
:10285C00000E7D6FFDEC0FF00050782701507923AE
:10286C00440E7C6F480E7D6F000E7E6F20EC0EF0D8
:10287C00005078270150792355C07CF156C07DF16A
:10288C00FC0E7E6F000E7F6F05DC190E7C6F480E00
:10289C007D6F000E7E6F20EC0EF0005078270150FB
:1028AC007923FC0E7C6F000E7D6FFDEC0FF0005059
:1028BC00782701507923420E7C6F480E7D6F000EF5
:1028CC007E6F20EC0EF0005078270150792300D059
:1028DC000101000E791902E1000E78193CE1CC0ED1
:1028EC007C6F470E7D6F000E7E6F20EC0EF000C0EB
:1028FC0078F101C079F1F80E7C6F470E7D6F000EF8
:10290C007E6F20EC0EF0005078270150792328C000
:10291C007CF129C07DF12AC07EF120EC0EF0005034
:10292C007827015079232BC07CF12CC07DF12DC070
:10293C007EF120EC0EF0005078270150792325C051
:10294C007CF126C07DF127C07EF120EC0EF000500A
:10295C0078270150792378C100F079C101F0120079
:10296C008FEC04F08FEC04F08FEC04F000C06DF1F0
:10297C008FEC04F000C06CF18FEC04F000C06FF130
:10298C008FEC04F000C06EF18FEC04F000C071F11C
:10299C008FEC04F000C070F18FEC04F08FEC04F0BD
:1029AC008FEC04F08FEC04F06EC100F06FC101F0FD
:1029BC00010E01016E5F000E6F5B005001100EE006
:1029CC008FEC04F0005201E0FBD78FEC04F08FEC9D
:1029DC0004F08FEC04F08FEC04F0E6D770C100F03B
:1029EC0071C101F0010E0101705F000E715B0050AE
:1029FC00011048E08FEC04F08FEC04F08FEC04F045
:102A0C0000C075F18FEC04F000C074F18FEC04F091
:102A1C008FEC04F08FEC04F08FEC04F08FEC04F0EE
:102A2C008FEC04F08FEC04F000C073F18FEC04F029
:102A3C0000C072F1000E0101751902E1010E74194A
:102A4C0011E18FEC04F000C08AF08FEC04F000C0B0
:102A5C008BF08FEC04F000C08CF08FEC04F000C015
:102A6C008DF010D072C100F073C101F0010E0101A4
:102A7C00725F000E735B0050011003E08FEC04F0EA
:062A8C00F1D7ACD71200E7
:102A9200B1D0980E01017C6F000E7D6F7E6B040E2B
:102AA2007F6F000E806FFEEC0DF0010E7C6F7D6B70
:102AB20030EC0DF03DC094F03EC095F03FC096F072
:102AC20040C097F0030E366EA6D0050E0001942585
:102AD200016E000E9521026E000E9621036E000E0D
:102AE2009721046E4050045C08E13F50035C05E10D
:102AF2003E50025C02E13D50015C02E2020E366E83
:102B020091EC0EF00050020A03E1040E366E01D081
:102B120082D0030E01017C6F4BC07DF130EC0DF0D1
:102B22003DC094F03EC095F03FC096F040C097F093
:102B3200050E366E70D091EC0EF000C06CF10050B4
:102B4200060A03E1040E366E2CD001016C51050A0F
:102B520028E13DC094F03EC095F03FC096F040C0E1
:102B620097F0060E366E980E986F000E996F5D0EF6
:102B72009A6F000E9B6F040E9C6F000E9D6FEFEC20
:102B820001F0780E7C6F000E7D6F6E0E7E6F000E70
:102B92007F6F660E806F000E816F5FEC0EF04B6AE6
:102BA2003AD039D0010E00019425016E000E952114
:102BB200026E000E9621036E000E9721046E0450E1
:102BC200405C08E103503F5C05E102503E5C02E1DB
:102BD20001503D5C0EE3010E595E000E5A5A5B5ADB
:102BE2005C5A3DC094F03EC095F03FC096F040C0A4
:102BF20097F011D03650020AD8B44BD73650030A98
:102C0200D8B463D73650040A84E03650050A93E0FC
:082C12003650060AC7E012006B
:102C1A001F0E0101A66F010EA76F4BEC00F01F0EED
:102C2A000101A66F020EA76FEAEC00F0140E010173
:102C3A006C6F3FC16DF124EC11F018EC11F0160E17
:102C4A006C6F41C16DF124EC11F018EC11F0170E04
:102C5A006C6F40C16DF124EC11F018EC11F0120008
:102C6A0042C1A6F143C1A7F168EC00F000C04DF1E2
:102C7A008FEC04F000C04CF18FEC04F000C04BF173
:102C8A008FEC04F000C04AF1000E01014B1902E179
:102C9A00000E4A1901E188D08FEC04F000C04FF110
:102CAA008FEC04F000C04EF1500E01018A6F010E44
:102CBA008B6FC90E8C6F190E8D6F040E8E6F000EFE
:102CCA008F6F3CEC05F0020EA96F080E4225AA6F21
:102CDA00000E4321AB6F23EC00F00E0E01013F25DD
:102CEA006C6F000E40216D6F41516C27000E6D23F1
:102CFA00080E6C27000E6D23E6EC10F0000E0101A1
:102D0A004D1902E1350E4C1902E12BDE4DD0000EB1
:102D1A0001014B1902E1440E4A1902E1B5DE44D021
:102D2A00500E01016C6F010E6D6F4CC16EF14DC1F9
:102D3A006FF14AC170F14BC171F1080E4E5D726FAD
:102D4A00000E4F59736FA00E746F000E756F8CECE6
:102D5A0011F000C04EF101C04FF10050011024E003
:102D6A00440E8A6F010E8B6FB50E8C6F190E8D6F24
:102D7A00060E8E6F000E8F6F3CEC05F0440E8A6FC4
:102D8A00010E8B6F500E8C6F010E8D6F4AC18EF142
:102D9A004BC18FF14CC190F14DC191F14EC192F1ED
:0A2DAA004FC193F131EC09F0120063
:102DB4001F0E0101A66F010EA76F4BEC00F01F0E52
:102DC4000101A66F020EA76FEAEC00F0140E0101D8
:102DD4006C6F3FC16DF124EC11F0120E0101A66F6E
:102DE400010EA76FEAEC00F018EC11F0120EA66FBA
:102DF400010EA76F4BEC00F0180E0101A66F98ECC2
:102E040000F042C1E1FF43C1E2FF00C0E6FF190E3A
:102E14000101A66F98EC00F040C1E1FF41C1E2FF5F
:062E240000C0E6FF1200F1
:102E2A00C40E0101A66F190EA76F68EC00F000C06E
:102E3A003FF1E8D0D50E01016C6F190E6D6F980E37
:102E4A006E6F000E6F6F040E706F43EC11F000503E
:102E5A00000A4BE1C40E0101A66F190EA76F020EFC
:102E6A00A86FB0EC00F0F9EC10F0CB0E986F190EC9
:102E7A00996FCF0E9A6F190E9B6FD50E9C6F190E14
:102E8A009D6F9E6B68EC01F0CB0E986F190E996FCF
:102E9A00980E9A6F000E9B6F040E9C6F000E9D6F2A
:102EAA00F0EC02F0C50E986F190E996FCB0E9A6F5F
:102EBA00190E9B6FCF0E9C6F190E9D6F9E6B68EC5F
:102ECA0001F0C50E986F190E996F720E9A6F000E67
:102EDA009B6F060E9C6F000E9D6FF0EC02F03C0E8D
:102EEA00986F000E996F17EC02F095D00101AF0EA2
:102EFA006C6F190E6D6F720E6E6F000E6F6F060E8D
:102F0A00706F43EC11F00050000A7BE1CB0E010117
:102F1A006C6F190E6D6FA1C06EF1A2C06FF1040E35
:102F2A00706F43EC11F00050000A6BE10F0E006E57
:102F3A00000E016E4CC004F0000E056EBEEC10F0DF
:102F4A00A30E002401018A6F000E01208B6F090E67
:102F5A008A27000E8B23C50E8C6F190E8D6F060EF5
:102F6A008E6F000E8F6F3CEC05F00F0E006E000E98
:102F7A00016E4CC004F0000E056EBEEC10F0A30EFC
:102F8A000024986F000E0120996F050E9827000EF5
:102F9A009923A1C09AF1A2C09BF1040E9C6F000E66
:102FAA009D6FEFEC01F00F0E006E000E016E4CC02B
:102FBA0004F0000E056EBEEC10F0A30E0024E16EC4
:102FCA00000E0120E26E010EE66E0F0E006E000E7C
:102FDA00016E4CC004F0000E056EBEEC10F0A30E9C
:102FEA000026000E0122010E0024E16E000E0120CF
:102FFA00E26E3DC0E6FF3EC0E6FF3FC0E6FF40C0CE
:10300A00E6FF09D001013F51010AD8B413D73F5155
:08301A00020AD8B46BD71200C2
:1030220043C1A6F144C1A7F168EC00F000C053F11E
:103032008FEC04F000C052F18FEC04F000C051F1AB
:103042008FEC04F000C050F10101586B5D6B010E72
:103052005E6F5B6B5C6B0C0E4325A66F000E44210A
:10306200A76F68EC00F000C056F1000E0101576F27
:103072005633569F5633569F000E576FFC0E561707
:10308200FF0E5717670E8A6F010E8B6FC90E8C6F7A
:10309200190E8D6F040E8E6F000E8F6F3CEC05F0D3
:1030A2000D0E4325A66F000E4421A76F68EC00F0B9
:1030B2003F0E00140101546F556B000E5517000EA0
:1030C200556F0E0E0001885D0101596F000E00015F
:1030D200895901015A6F4151595F42515A5B565108
:1030E200595F57515A5B020E4325A66F000E4421C9
:1030F200A76F68EC00F000C0A8F143C1A6F144C17B
:10310200A7F1B0EC00F0030E01014325A66F000EFB
:103112004421A76F68EC00F000C0A6F1D1EC00F0EA
:1031220052C198F153C199F112EC04F0040E01015D
:103132004325A66F000E4421A76F68EC00F000C083
:1031420062F18FEC04F000C061F18FEC04F000C07A
:1031520060F18FEC04F000C05FF18FEC04F000C06E
:1031620066F18FEC04F000C065F18FEC04F000C052
:1031720064F18FEC04F000C063F1000E01015519F7
:1031820002E1020E54193CE1010E5F25006E000EB1
:103192006021016E000E6121026E000E6221036E3B
:1031A20000C063F101C064F102C065F103C066F1C1
:1031B200120E546F000E556F0C0EA66F98EC00F0B5
:1031C20000C05FF10D0E0101A66F98EC00F000C087
:1031D20060F10101A66B98EC00F000C061F1010EF4
:1031E2000101A66F98EC00F000C062F10101582BBA
:1031F200180E566F000E576F5B6B5C6B4D6A6ED08C
:10320200000E551902E1180E54192FE15FC145F164
:1032120060C146F161C147F162C148F163C15FF12A
:1032220064C160F165C161F166C162F15951452520
:10323200006E5A514621016E000E4721026E000EA9
:103242004821036E00C063F101C064F102C065F160
:1032520003C066F1100E546F000E556F582B140EFA
:10326200566F000E576F5D2B39D0000E551902E1D3
:10327200110E541933E15FC149F160C14AF161C1D4
:103282004BF162C14CF163C15FF164C160F165C190
:1032920061F166C162F1010E4925006E000E4A21FC
:1032A200016E000E4B21026E000E4C21036E00C017
:1032B20063F101C064F102C065F103C066F1100E52
:1032C200546F000E556F582B140E566F000E576F29
:1032D2005B6B5C6B4E5202E14D2A4E6A5853D8B476
:1032E200CFD10101040E4325986F000E4421996F3E
:1032F20062C19AF161C19BF11AEC01F060C1A6F1C1
:10330200D1EC00F05FC1A6F1D1EC00F066C1A6F1EC
:10331200D1EC00F065C1A6F1D1EC00F064C1A6F1D8
:10332200D1EC00F063C1A6F1D1EC00F00C0E01016A
:103332004325A66F000E4421A76F68EC00F00F0E24
:1033420000140101A86F56C100F00036009000364B
:1033520000900050A8130C0E4325A66F000E4421C6
:10336200A76FB0EC00F00D0E01014325A66F000E11
:103372004421A76F68EC00F0C00E00140101A86F91
:103382005451A8130D0E4325A66F000E4421A76FBA
:10339200B0EC00F0000E0101551902E1120E5419B1
:1033A20023E10E0E4325986F000E4421996F050EFE
:1033B2009A6FEE0E9B6F1AEC01F0140E0101432579
:1033C200986F000E4421996F020E9A6F040E9B6F44
:1033D2001AEC01F0050E0101A66FD1EC00F0780E97
:1033E2000101A66FD1EC00F0010141515B25596F3B
:1033F20042515C215A6F5651592757515A235E53F5
:1034020004E0F9EC10F08FEC11F0BF0E986F190E7A
:10341200996F5AC19AF159C19BF11AEC01F0C70E8A
:103422000101986F190E996F9A6B9B6B1AEC01F060
:10343200BD0E0101986F190E996F41C19AF142C1F7
:103442009BF140EC01F0160E0101A66F98EC00F022
:1034520000C06BF1170E0101A66F98EC00F000C0DE
:103462009AF1C70E0101986F190E996F6BC19BF10A
:103472001AEC01F0BD0E010159254E6F190E5A21A9
:103482004F6F100E4325986F000E4421996F9A6B6F
:103492009B6B1AEC01F0010E010159154D6F4EC1E3
:1034A200A6F14FC1A7F1A86BB0EC00F0C90E010163
:1034B200986F190E996FD10E9A6F190E9B6F4D511D
:1034C2004E259C6F000E4F219D6F9E6B68EC01F0A4
:1034D200080E4E25986F000E4F21996F4D51982777
:1034E200000E99239A6B060E9B6F1AEC01F00A0EDE
:1034F20001014E25986F000E4F21996F4D5198276B
:10350200000E99235B515625036E5C515721046EC0
:1035120004C000F0016A00C09AF103C09BF11AECEA
:1035220001F043C198F144C199F101015B51562563
:103532009A6F5C5157219B6F0C0E9A27000E9B23AA
:103542004D519A27000E9B2340EC01F0160E01010B
:10355200A66F98EC00F000C06BF1170E0101A66F88
:1035620098EC00F000C09AF1100E01014325986F0B
:10357200000E4421996F6BC19BF11AEC01F00E0E03
:1035820001015925986F000E5A21996F17EC02F02C
:103592005D5350E0100E546F000E556F5D6B5E6B05
:1035A200020EA96F56514325AA6F57514421AB6FA2
:1035B20023EC00F00E0E01013F256C6F000E40213E
:1035C2006D6F41516C2742516D2356516C275751F3
:1035D2006D23E6EC10F04D2A670E01016C6F010EAF
:1035E2006D6F52C16EF153C16FF150C170F151C193
:1035F20071F10E0E0001885D0101726F000E000173
:1036020089590101736F4151725F4251735B565187
:10361200725F5751735BA00E746F000E756FAEEC44
:1036220011F000C05BF101C05CF10001A0B101D05A
:103632004D6A57D64D5224E001015B515F25006E61
:103642005C516021016E000E6121026E000E62214A
:10365200036E00C05FF101C060F102C061F103C0FE
:1036620062F1110E546F000E556F4D6A5E6B140EAF
:10367200566F000E576F5B6B5C6B010E4E6E31D650
:02368200120034
:1036840001016C6B335303E00D0E346F02D0050E51
:10369400346F34C16DF124EC11F0020E01016C6F32
:1036A400335303E0310E356F02D0300E356F35C120
:1036B4006DF124EC11F00A0E0101A96FEE0EAA6F50
:1036C400050EAB6F23EC00F0040E01016C6F335355
:1036D40003E0150E366F02D0120E366F36C16DF14F
:1036E40024EC11F0060E01016C6F120E6D6F24ECC8
:1036F40011F00101335306E1070E6C6F0C0E6D6F70
:1037040024EC11F00101335306E1090E6C6F3F0EF6
:103714006D6F24EC11F01F0E0101A66F010EA76F4F
:10372400EAEC00F01F0E0101A66F020EA76FEAEC8F
:1037340000F0040E01016C6F72C06DF124EC11F005
:10374400050E01016C6F73C06DF124EC11F0020ED3
:1037540001016C6F74C06DF124EC11F0030E0101D2
:103764006C6F75C06DF124EC11F001016C6B76C0C7
:103774006DF124EC11F0010E01016C6F77C06DF155
:1037840024EC11F0150E01016C6F6D6B24EC11F03B
:10379400120E0101A66F98EC00F000C065F0010163
:1037A4003F6B380E406F010E416F390E426F010EB0
:1037B400436FDAEC16F001013F6BFE0E3815406FD3
:1037C400335303E0010E376F01D0376B3751401389
:1037D40039C141F10DEC16F0100E3F6F010E406F30
:1037E400416B0DEC16F01F0EA66F040EA76FEAECEA
:1037F40000F018EC11F0A30E7C6F000E7D6F7E6B51
:103804002D0E7F6F000E806FFEEC0DF01F0EA66F65
:10381400010EA76F4BEC00F01F0E0101A66F020E04
:08382400A76F4BEC00F012004D
:10382C0001013C6B0001A081A0931F0E0101A66F4A
:10383C00010EA76F4BEC00F01F0E0101A66F020EDC
:10384C00A76F4BEC00F00101A96B49C0AAF14AC06B
:10385C00ABF123EC00F0829263C0E1FF64C0E2FFA5
:10386C003A0EE66E61C000F062C001F017EC00F099
:10387C0063C0E1FF64C0E2FFE66A61C000F062C0B1
:10388C0001F017EC00F000C049F063C0E1FF64C028
:10389C00E2FFE66A61C000F062C001F017EC00F0D4
:1038AC0000C04AF063C0E1FF64C0E2FFE66A61C099
:1038BC0000F062C001F017EC00F000C088F063C0AB
:1038CC00E1FF64C0E2FFE66A61C000F062C001F093
:1038DC0017EC00F000C089F063C0E1FF64C0E2FFA8
:1038EC00E66A61C000F062C001F017EC00F000C0A5
:1038FC003AF163C0E1FF64C0E2FFE66A61C000F028
:10390C0062C001F017EC00F000C03BF18282040EA3
:10391C000001885F000E895B4A50190802E149508A
:10392C00AD0810E349B00ED001013BBF0BD0000134
:10393C008951050802E18851EE0804E301013AAF10
:10394C0001D003D0010E006ED2D10101A66B98EC10
:10395C0000F000C038F1010E0101A66F98EC00F0E8
:10396C0000C039F138C198F139C199F10001885181
:10397C00010138259A6F00018951010139219B6F92
:10398C00AF0E9C6F190E9D6F010E9E6F68EC01F0CF
:10399C00BB0EA66F190EA76F68EC00F000C03BF1D0
:1039AC008FEC04F000C03AF101013B51080A02E12E
:1039BC00060E3A1912E1BD0E6C6F190E6D6F410EA9
:1039CC006E6F000E6F6F070E706F43EC11F00050AE
:1039DC00000A02E115EC17F060D101013B51080A15
:1039EC0002E1000E3A19D8A455D1CD0E6C6F190E08
:1039FC006D6FD00E6E6F000E6F6F040E706F43EC18
:103A0C0011F0005202E10001A083CD0E01016C6F98
:103A1C00190E6D6F370E6E6F000E6F6F040E706F98
:103A2C0043EC11F0005202E10001A083CD0E010124
:103A3C006C6F190E6D6F980E6E6F000E6F6F040E1B
:103A4C00706F43EC11F0005207E00001A0B304D0FA
:103A5C00020E01013C6F1DD10101BD0EA66F190EA6
:103A6C00A76F68EC00F0F00E0014016E0150400AD4
:103A7C0004E0030E01013C6F0CD10101BD0EA66FD9
:103A8C00190EA76F68EC00F000C036F1000E0101B2
:103A9C00376F0F0E3617000E37173637369137370C
:103AAC00363736913737C30EA66F190EA76F68ECF1
:103ABC0000F0BF0E0014016E0150000AD8A4E9D02A
:103ACC00C40E0101A66F190EA76F68EC00F0005030
:103ADC00000AD8A4DED0BD0E01013625346F190EB4
:103AEC003721356FC60EA66F190EA76F68EC00F064
:103AFC0000C033F10050010AD8A48CD034C1A6F117
:103B0C0035C1A7F168EC00F00050080AD8A481D0A8
:103B1C00010E01013425A66F000E3521A76F68EC4C
:103B2C0000F00050000A75E134C1A6F135C1A7F1CF
:103B3C000101A86BB0EC00F0F9EC10F08FEC11F077
:103B4C00C70E986F190E996F9A6B9B6B1AEC01F05C
:103B5C00BD0E0101986F190E996F36C19AF137C1DC
:103B6C009BF140EC01F0160E0101A66F98EC00F0F1
:103B7C0000C03DF1170E0101A66F98EC00F000C0DB
:103B8C009AF1C70E0101986F190E996F3DC19BF107
:103B9C001AEC01F0020E01013425986F000E35214C
:103BAC00996F9A6B9B6B1AEC01F034C198F135C18B
:103BBC0099F1010136510001885D01019A6F37516D
:103BCC000001895901019B6F0E0E9A5F000E9B5BE1
:103BDC0040EC01F0160E0101A66F98EC00F000C04D
:103BEC003DF1170E0101A66F98EC00F000C09AF1A0
:103BFC00020E01013425986F000E3521996F3DC1DD
:103C0C009BF11AEC01F088C098F189C099F117EC7E
:103C1C0002F03FD001013351110A0DE138C13FF1DF
:103C2C0039C140F136C141F134C142F135C143F1E2
:103C3C0035EC16F02ED001013351060A2AE1100E94
:103C4C003825A66F000E3921A76F68EC00F000C074
:103C5C003EF101013D6B8FEC04F0005001013D255C
:103C6C000001886F000E01013E210001896F0E0ECC
:103C7C008827000E892338C13FF139C140F136C184
:103C8C0041F137C142F134C143F135C144F111EC7A
:103C9C0018F003D0040E01013C6F01011E0EA66F3B
:103CAC00400EA76FEAEC00F0010E495C016E000EAD
:103CBC004A58026E0250190802E10150AD080AE29E
:103CCC000C0E0101A96FAD0EAA6F190EAB6F23EC90
:103CDC0000F00BD00C0E0101A96F010E495CAA6F0C
:103CEC00000E4A58AB6F23EC00F03CC100F0120000
:103CFC000900F5CFE6FF0006FBE10106F9E1120031
:103D0C001C0E0001616F000E626FAC0E636F010E32
:103D1C00646FFF0E906FFF0E916FFF0E926FFF0E90
:103D2C00936F949E93929380C66A400EC76EC68A18
:023D3C00120073
:103D3E00949082809492828218EC11F0828018EC1A
:103D4E0011F0829018EC11F0828018EC11F0829232
:103D5E0063C0E1FF64C0E2FFFF0EE66E61C000F0DB
:103D6E0062C001F017EC00F0828218EC11F0720EB6
:103D7E00986F000E996F2EC19AF12FC19BF1060E0E
:103D8E009C6F000E9D6FEFEC01F0980E986F000E79
:103D9E00996F30C19AF131C19BF1040E9C6F000EE8
:103DAE009D6FEFEC01F01F0EA66F010EA76F4BEC8F
:103DBE0000F01F0E0101A66F020EA76F4BEC00F074
:103DCE00080E0101A96FAA6BAB6B23EC00F00A0E73
:103DDE000101A96FAD0EAA6F190EAB6F23EC00F0A7
:103DEE000C0E0101A96FAD0EAA6F190EAB6F23EC6D
:103DFE0000F00101A96BAA6BAB6B23EC00F0040E73
:103E0E000101A96FAE0EAA6F190EAB6F23EC00F075
:103E1E001F0E0101A66F010EA76F4BEC00F01F0ED7
:103E2E000101A66F020EA76FEAEC00F032C133F16A
:043E3E0022DC120070
:103E420001012E6B1F0EA66F010EA76FEAEC00F0A8
:103E52001F0E0101A66F020EA76F4BEC00F0190EA8
:103E62000101A66F98EC00F00050000803E2DDDCCF
:103E720000C02EF11F0E0101A66F010EA76F4BECC1
:103E820000F01F0E0101A66F020EA76F4BEC00F0AF
:063E92002EC100F0120039
:103E980003500718D8A460EF1FF002500618D8A4E2
:103EA80060EF1FF001500518D8A460EF1FF0005014
:0E3EB8000418D8B4D8841200D8941200120056
:103EC60023EC24F0806AFF0E926E956A1CDF1B0EAF
:103ED60001012E6F000E2F6F210E306F000E316F15
:103EE600010E326F29DFAADF1AC104F01BC105F0EB
:103EF6001CC106F01DC107F032C000F033C001F04E
:103F060034C002F035C003F0FCEC05F0010ED8B069
:103F1600000E006E0052D8B469D1EFC004F0F0C0B4
:103F260005F0F1C006F0F2C007F0F5C000F0F6C0EB
:103F360001F0F7C002F0F8C003F0FCEC05F0010E4A
:103F4600D8B0000E006E005209E0EFC084F0F0C059
:103F560085F0F1C086F0F2C087F037D0F5C0EFF0FB
:103F6600F6C0F0F0F7C0F1F0F8C0F2F00001F5513C
:103F7600F611F711F81109E0EFC084F0F0C085F0F2
:103F8600F1C086F0F2C087F020D0F5C004F0F6C08C
:103F960005F0F7C006F0F8C007F0EFC000F0F0C07B
:103FA60001F0F1C002F0F2C003F0FCEC05F0010EE6
:103FB600D8B0000E006E005208E0F5C084F0F6C0DE
:103FC60085F0F7C086F0F8C087F022C104F023C15F
:103FD60005F024C106F025C107F028C100F029C16B
:103FE60001F02AC102F02BC103F0FCEC05F0010E32
:103FF600D8B0000E006E005209E022C180F023C145
:1040060081F024C182F025C183F037D028C122F186
:1040160029C123F12AC124F12BC125F1010128511F
:1040260029112A112B1109E022C180F023C181F048
:1040360024C182F025C183F020D028C104F029C113
:1040460005F02AC106F02BC107F022C100F023C1FA
:1040560001F024C102F025C103F0FCEC05F0010ECD
:10406600D8B0000E006E005208E028C180F029C1C9
:1040760081F02AC182F02BC183F084C004F085C090
:1040860005F086C006F087C007F080C000F081C04A
:1040960001F082C002F083C003F0FCEC05F0010ED3
:1040A600D8B0000E006E005209E084C07CF085C0D6
:1040B6007DF086C07EF087C07FF037D080C084F068
:1040C60081C085F082C086F083C087F000018051F0
:1040D60081118211831109E084C07CF085C07DF0D6
:1040E60086C07EF087C07FF020D080C004F081C0FB
:1040F60005F082C006F083C007F084C000F085C0DA
:1041060001F086C002F087C003F0FCEC05F0010E5A
:10411600D8B0000E006E005208E080C07CF081C06E
:104126007DF082C07EF083C07FF0EFC004F0F0C067
:1041360005F0F1C006F0F2C007F07CC000F07DC0CB
:1041460001F07EC002F07FC003F0A3DE010ED8A40A
:10415600000E006E0052D8A48380F5C004F0F6C0AD
:1041660005F0F7C006F0F8C007F07CC000F07DC08F
:1041760001F07EC002F07FC003F08BDE010ED8A4F2
:10418600000E006E0052D8A4838222C104F023C11F
:1041960005F024C106F025C107F07CC000F07DC003
:1041A60001F07EC002F07FC003F073DE010ED8A4DA
:1041B600000E006E0052D8A4838428C104F029C1E1
:1041C60005F02AC106F02BC107F07CC000F07DC0C7
:1041D60001F07EC002F07FC003F05BDE010ED8A4C2
:1041E600000E006E0052D8A4838604D0839083927A
:0841F6008394839678D6FFD76D
:1048460010EE15F0440E006E010E016E880EF66E27
:0E485600470EF76E000EF86E7EEC1EF012009C
:1041FE003C6469763E203C7461626C652020616C83
:10420E0069676E3D63656E7465723E2020202020C6
:10421E00202020202020203C74723E3C74643E20DE
:10422E002020202020202020202020202020202080
:10423E002020203C6833203E4348414D42524520C9
:10424E00313C2F68333E20202020202020202020AB
:10425E00202020202020202020203C703E656E2033
:10426E00416D706572653C2F703E2020202020200D
:10427E0020202020202020202020202020203C68CC
:10428E00343E2020202020202020202020202020EE
:10429E00202020202020202020203C736372697073
:1042AE00743E646F63756D656E742E777269746596
:1042BE0028414E30293B203C2F7363726970743E47
:1042CE0020202020202020202020202020202020E0
:1042DE00202020203C2F68343E203C2F74643E204A
:1042EE002020202020202020202020202020203CA4
:1042FE0074643E20202020202020202020202020FA
:10430E00202020202020203C6833203E4348414D71
:10431E0042524520323C2F68333E20202020202060
:10432E0020202020202020202020202020203C7013
:10433E003E656E20416D706572653C2F703E20208B
:10434E00202020202020202020202020202020205F
:10435E0020203C6834203E202020202020202020B9
:10436E002020202020202020202020202020203C23
:10437E007363726970743E646F63756D656E742ECF
:10438E00777269746528414E32293B203C2F736346
:10439E00726970743E2020202020202020202020B2
:1043AE002020202020202020203C2F68343E203C3E
:1043BE002F74643E2020202020202020202020202A
:1043CE00202020203C7464207374796C653D227724
:1043DE00696474683A2035253B223E3C2F74643E56
:1043EE0020202020202020202020202020202020BF
:1043FE00203C2F74723E20202020202020202020C0
:10440E0020202020202020202020202020203C742E
:10441E00723E3C746420616C69676E203D2063655A
:10442E006E74657220636F6C7370616E3D323E20E8
:10443E003C68333E5055495353414E434520544FEB
:10444E0054414C3C2F68333E202020202020202039
:10445E002020202020202020202020203C7020738F
:10446E0074796C653D22746578742D616C69676E24
:10447E003A2063656E7465723B22203E656E20574E
:10448E006174743C2F703E2020202020202020209C
:10449E002020202020202020202020203C68342096
:1044AE007374796C653D226261636B67726F756EB2
:1044BE00642D636F6C6F723A20234646444545392E
:1044CE00223E2020202020202020202020202020BE
:1044DE002020202020203C7363726970743E20647B
:1044EE006F63756D656E742E77726974652850549E
:1044FE00293B20202020202020202020202020208A
:10450E0020202020202020202020203C2F7363728A
:10451E006970743E20202020202020202020202082
:10452E002020202020202020202020203C2F6834F6
:10453E003E3C62723E3C703E5055495353414E4391
:10454E0045204155544F52495345203D203130208E
:10455E0030303020576174743C2F703E3C2F7464A1
:10456E003E2020202020202020202020202020201F
:10457E0020202020202020203C2F74723E2020203E
:10458E00202020202020202020202020202020201D
:10459E0020202020203C2F7461626C653E3C2F64ED
:0445AE0069763E00EC
:1045B2003C6D65746120687474702D6571756976DF
:1045C2003D27726566726573682720636F6E746536
:1045D2006E743D2731303B75726C3D687474703A6D
:1045E2002F2F3139322E3136382E302E3137302FAF
:1045F200273E3C6D65746120687474702D65717519
:1046020069763D22582D55412D436F6D7061746955
:10461200626C652220636F6E74656E743D2249453B
:104622003D65646765223E20202020203C6D657434
:1046320061206E616D653D2276696577706F727477
:104642002220636F6E74656E743D227769647468AC
:104652003D6465766963652D77696474682C2069A9
:104662006E697469616C2D7363616C653D312E30C6
:10467200223E3C48544D4C3E3C484541443E3C2F32
:10468200484541443E3C424F44593E3C68312073C8
:1046920074796C653D22746578742D616C69676EFE
:1046A2003A2063656E7465723B223E484F4D452049
:1046B20043555252454E54204D45535552454D4552
:1046C2004E543C2F68313E3C68723E3C70207374FD
:1046D200796C653D22746578742D616C69676E3AF8
:1046E2002063656E7465723B223E3C612068726590
:1046F200663D2F3E52656C6F61643C2F613E3C709B
:104702003E3C736372697074207372633D2F733E13
:0A4712003C2F7363726970743E005F
:10471C003C7020207374796C653D22746578742D1F
:10472C00616C69676E3A2063656E7465723B223EFC
:10473C005468697320697320485454502072657111
:10474C007565737420233C7363726970743E646F77
:10475C0063756D656E742E77726974652852455158
:10476C00293C2F7363726970743E3C703E3C2F423F
:0C477C004F44593E3C2F48544D4C3E0029
:04478800494E460050
:02478C003000FB
:06478E000014A576193F9E
:04479400C0A800AA0F
:034798001C4700BB
:03479B00B2450024
:03479E00FE4100D9
:0447A1004E614E0017
:0447A50000401C8C28
:0147A900000F
:0647AA00FFFFFFFFFFFF0F
:0447B0000000000005
:0847B4000001080006040000EA
:0247BC000000FB
:0147BE0000FA
:0147BF0000F9
:0147C00000F8
:0147C10000F7
:0647C200474554202F00C2
:0447C80000000000ED
:1047CC00485454502F312E3120323030204F4B0A68
:0F47DC00436F6E74656E742D747970653A2000AA
:0D47EB00746578742F706C61696E0A0A00A5
:0C47F800746578742F68746D6C0A0A00F8
:0C48040001010600122334450000800072
:0948100076617220414E323D0038
:09481900766172205245513D0008
:0948220076617220414E303D0028
:08482B007661722050543D003B
:06483300638253633501AE
:05483900370301030636
:02483E003B003D
:024840003B003B
:024842003B0039
:024844003B0037
:020000040030CA
:0E000000000C1F1EFF8381FF0FC00FE00F409A
:00000001FF
